{"abi":[{"type":"constructor","inputs":[{"name":"_token","type":"address","internalType":"address"}],"stateMutability":"nonpayable"},{"type":"function","name":"addNewMember","inputs":[{"name":"_newMember","type":"address","internalType":"address"}],"outputs":[{"name":"","type":"bool","internalType":"bool"}],"stateMutability":"nonpayable"},{"type":"function","name":"amountContributed","inputs":[{"name":"","type":"address","internalType":"address"}],"outputs":[{"name":"","type":"uint256","internalType":"uint256"}],"stateMutability":"view"},{"type":"function","name":"balances","inputs":[{"name":"","type":"address","internalType":"address"}],"outputs":[{"name":"","type":"uint256","internalType":"uint256"}],"stateMutability":"view"},{"type":"function","name":"contribute","inputs":[{"name":"_amount","type":"uint256","internalType":"uint256"}],"outputs":[],"stateMutability":"payable"},{"type":"function","name":"isMember","inputs":[{"name":"","type":"address","internalType":"address"}],"outputs":[{"name":"","type":"bool","internalType":"bool"}],"stateMutability":"view"},{"type":"function","name":"members","inputs":[{"name":"","type":"uint256","internalType":"uint256"}],"outputs":[{"name":"","type":"address","internalType":"address"}],"stateMutability":"view"},{"type":"function","name":"requestFunds","inputs":[{"name":"_amount","type":"uint256","internalType":"uint256"},{"name":"_purpose","type":"string","internalType":"string"}],"outputs":[{"name":"","type":"uint128","internalType":"uint128"}],"stateMutability":"payable"},{"type":"function","name":"token","inputs":[],"outputs":[{"name":"","type":"address","internalType":"contract IERC20"}],"stateMutability":"view"},{"type":"function","name":"totalReceived","inputs":[{"name":"","type":"address","internalType":"address"}],"outputs":[{"name":"","type":"uint256","internalType":"uint256"}],"stateMutability":"view"},{"type":"function","name":"viewMembers","inputs":[],"outputs":[{"name":"","type":"address[]","internalType":"address[]"}],"stateMutability":"view"},{"type":"function","name":"withdrawalRequests","inputs":[{"name":"","type":"uint128","internalType":"uint128"}],"outputs":[{"name":"requestID","type":"uint256","internalType":"uint256"},{"name":"amount","type":"uint256","internalType":"uint256"},{"name":"member","type":"address","internalType":"address"},{"name":"purpose","type":"string","internalType":"string"},{"name":"status","type":"uint8","internalType":"enum SlushFund.RequestStatus"}],"stateMutability":"view"},{"type":"event","name":"Contributed","inputs":[{"name":"contributor","type":"address","indexed":true,"internalType":"address"},{"name":"amount","type":"uint256","indexed":false,"internalType":"uint256"}],"anonymous":false},{"type":"event","name":"MemberAdded","inputs":[{"name":"member","type":"address","indexed":true,"internalType":"address"}],"anonymous":false},{"type":"event","name":"MemberRemoved","inputs":[{"name":"member","type":"address","indexed":true,"internalType":"address"}],"anonymous":false},{"type":"event","name":"WithdrawalRequested","inputs":[{"name":"requestID","type":"uint128","indexed":false,"internalType":"uint128"},{"name":"member","type":"address","indexed":true,"internalType":"address"},{"name":"amount","type":"uint256","indexed":false,"internalType":"uint256"},{"name":"purpose","type":"string","indexed":false,"internalType":"string"}],"anonymous":false},{"type":"error","name":"InvalidAmount","inputs":[{"name":"amount","type":"uint256","internalType":"uint256"}]},{"type":"error","name":"MemberAlreadyExists","inputs":[]},{"type":"error","name":"MemberDoesNotExist","inputs":[]},{"type":"error","name":"NotAuthorizedToDeposit","inputs":[{"name":"reason","type":"uint8","internalType":"enum SlushFund.GeneralErrors"}]},{"type":"error","name":"NotVaultOwner","inputs":[{"name":"reason","type":"uint8","internalType":"enum SlushFund.GeneralErrors"}]},{"type":"error","name":"TransferFailed","inputs":[]},{"type":"error","name":"WithdrawalRequestFailed","inputs":[{"name":"reason","type":"uint8","internalType":"enum SlushFund.RequestError"}]}],"bytecode":{"object":"0x60c060405234801561000f575f5ffd5b50604051610d23380380610d2383398101604081905261002e91610043565b6001600160a01b031660a05233608052610070565b5f60208284031215610053575f5ffd5b81516001600160a01b0381168114610069575f5ffd5b9392505050565b60805160a051610c7d6100a65f395f818161026801526106f001525f81816105e50152818161078c01526107d80152610c7d5ff3fe60806040526004361061009a575f3560e01c80635daf08ca116100625780635daf08ca146101835780636d5ee98a146101ba57806398eb8d93146101e5578063a230c52414610214578063c1cbbca714610242578063fc0c546a14610257575f5ffd5b806327e235e31461009e57806336aec5a3146100dc57806336e6fff9146101075780634454538a146101285780634df9cfb314610158575b5f5ffd5b3480156100a9575f5ffd5b506100c96100b8366004610876565b5f6020819052908152604090205481565b6040519081526020015b60405180910390f35b3480156100e7575f5ffd5b506100c96100f6366004610876565b60016020525f908152604090205481565b348015610112575f5ffd5b5061011b61028a565b6040516100d391906108a3565b348015610133575f5ffd5b506101476101423660046108ee565b6102ea565b6040516100d3959493929190610928565b348015610163575f5ffd5b506100c9610172366004610876565b60026020525f908152604090205481565b34801561018e575f5ffd5b506101a261019d366004610991565b6103ad565b6040516001600160a01b0390911681526020016100d3565b6101cd6101c83660046109a8565b6103d5565b6040516001600160801b0390911681526020016100d3565b3480156101f0575f5ffd5b506102046101ff366004610876565b6105d9565b60405190151581526020016100d3565b34801561021f575f5ffd5b5061020461022e366004610876565b60036020525f908152604090205460ff1681565b610255610250366004610991565b610678565b005b348015610262575f5ffd5b506101a27f000000000000000000000000000000000000000000000000000000000000000081565b606060058054806020026020016040519081016040528092919081815260200182805480156102e057602002820191905f5260205f20905b81546001600160a01b031681526001909101906020018083116102c2575b5050505050905090565b60046020525f90815260409020805460018201546002830154600384018054939492936001600160a01b03909216929161032390610a1f565b80601f016020809104026020016040519081016040528092919081815260200182805461034f90610a1f565b801561039a5780601f106103715761010080835404028352916020019161039a565b820191905f5260205f20905b81548152906001019060200180831161037d57829003601f168201915b5050506004909301549192505060ff1685565b600581815481106103bc575f80fd5b5f918252602090912001546001600160a01b0316905081565b335f9081526003602052604081205460ff1661040f575f604051638e31d58360e01b81526004016104069190610a57565b60405180910390fd5b5f841161043157604051633728b83d60e01b8152346004820152602401610406565b600680546001600160801b0316905f61044983610a85565b91906101000a8154816001600160801b0302191690836001600160801b03160217905550506040518060a0016040528060065f9054906101000a90046001600160801b03166001600160801b03168152602001858152602001336001600160a01b0316815260200184848080601f0160208091040260200160405190810160405280939291908181526020018383808284375f92018290525093855250505060209182018190526006546001600160801b0316815260048252604090819020835181559183015160018301558201516002820180546001600160a01b0319166001600160a01b039092169190911790556060820151600382019061054d9082610b0f565b50608082015160048201805460ff1916600183600381111561057157610571610914565b0217905550506006546040513392507fa44511c4272b5c79c6b4976f02cd9820bc1eed0b5bfc3ea945876a17e3a5f590916105bd916001600160801b0390911690889088908890610bca565b60405180910390a2506006546001600160801b03169392505050565b5f336001600160a01b037f00000000000000000000000000000000000000000000000000000000000000001614610625575f604051635a548af560e11b81526004016104069190610a57565b5060058054600181810183555f929092527f036b6384b5eca791c62761152d0c79bb0604c104a5fb6f4eb0703f3154bb3db00180546001600160a01b0384166001600160a01b0319909116179055919050565b335f9081526003602052604090205460ff166106a9575f604051638e31d58360e01b81526004016104069190610a57565b5f81116106cc57604051633728b83d60e01b815260048101829052602401610406565b6040516323b872dd60e01b8152336004820152306024820152604481018290525f907f00000000000000000000000000000000000000000000000000000000000000006001600160a01b0316906323b872dd906064016020604051808303815f875af115801561073e573d5f5f3e3d5ffd5b505050506040513d601f19601f820116820180604052508101906107629190610c0f565b905080610782576040516312171d8360e31b815260040160405180910390fd5b6001600160a01b037f0000000000000000000000000000000000000000000000000000000000000000165f90815260208190526040812080548492906107c9908490610c2e565b90915550506001600160a01b037f0000000000000000000000000000000000000000000000000000000000000000165f9081526002602052604081208054849290610815908490610c2e565b9091555050335f9081526001602052604081208054849290610838908490610c2e565b909155505060405182815233907f62722348256371b5147820d6cad90c40fd2da1ccee18c3ed52c0bca5a61dbbab9060200160405180910390a25050565b5f60208284031215610886575f5ffd5b81356001600160a01b038116811461089c575f5ffd5b9392505050565b602080825282518282018190525f918401906040840190835b818110156108e35783516001600160a01b03168352602093840193909201916001016108bc565b509095945050505050565b5f602082840312156108fe575f5ffd5b81356001600160801b038116811461089c575f5ffd5b634e487b7160e01b5f52602160045260245ffd5b85815284602082015260018060a01b038416604082015260a060608201525f83518060a0840152806020860160c085015e5f60c0828501015260c0601f19601f8301168401019150506004831061098157610981610914565b8260808301529695505050505050565b5f602082840312156109a1575f5ffd5b5035919050565b5f5f5f604084860312156109ba575f5ffd5b83359250602084013567ffffffffffffffff8111156109d7575f5ffd5b8401601f810186136109e7575f5ffd5b803567ffffffffffffffff8111156109fd575f5ffd5b866020828401011115610a0e575f5ffd5b939660209190910195509293505050565b600181811c90821680610a3357607f821691505b602082108103610a5157634e487b7160e01b5f52602260045260245ffd5b50919050565b6020810160018310610a6b57610a6b610914565b91905290565b634e487b7160e01b5f52601160045260245ffd5b5f6001600160801b0382166001600160801b038103610aa657610aa6610a71565b60010192915050565b634e487b7160e01b5f52604160045260245ffd5b601f821115610b0a57805f5260205f20601f840160051c81016020851015610ae85750805b601f840160051c820191505b81811015610b07575f8155600101610af4565b50505b505050565b815167ffffffffffffffff811115610b2957610b29610aaf565b610b3d81610b378454610a1f565b84610ac3565b6020601f821160018114610b6f575f8315610b585750848201515b5f19600385901b1c1916600184901b178455610b07565b5f84815260208120601f198516915b82811015610b9e5787850151825560209485019460019092019101610b7e565b5084821015610bbb57868401515f19600387901b60f8161c191681555b50505050600190811b01905550565b6001600160801b038516815283602082015260606040820152816060820152818360808301375f818301608090810191909152601f909201601f191601019392505050565b5f60208284031215610c1f575f5ffd5b8151801515811461089c575f5ffd5b80820180821115610c4157610c41610a71565b9291505056fea264697066735822122019bc86047dfe6385bdaa7e46c4552a37319ea0702986a61d523fb1c9ac7dbea364736f6c634300081c0033","linkReferences":{}},"methodIdentifiers":{"addNewMember(address)":"98eb8d93","amountContributed(address)":"36aec5a3","balances(address)":"27e235e3","contribute(uint256)":"c1cbbca7","isMember(address)":"a230c524","members(uint256)":"5daf08ca","requestFunds(uint256,string)":"6d5ee98a","token()":"fc0c546a","totalReceived(address)":"4df9cfb3","viewMembers()":"36e6fff9","withdrawalRequests(uint128)":"4454538a"},"id":0}