{"abi":[{"type":"function","name":"handleWithdrawalRequest","inputs":[{"name":"requestId","type":"uint128","internalType":"uint128"},{"name":"member","type":"address","internalType":"address"},{"name":"amount","type":"uint256","internalType":"uint256"},{"name":"purpose","type":"string","internalType":"string"}],"outputs":[],"stateMutability":"nonpayable"}],"bytecode":{"object":"0x6080604052348015600e575f5ffd5b5061018d8061001c5f395ff3fe608060405234801561000f575f5ffd5b5060043610610029575f3560e01c8063aecd31a31461002d575b5f5ffd5b61004161003b366004610057565b50505050565b005b634e487b7160e01b5f52604160045260245ffd5b5f5f5f5f6080858703121561006a575f5ffd5b84356fffffffffffffffffffffffffffffffff81168114610089575f5ffd5b935060208501356001600160a01b03811681146100a4575f5ffd5b925060408501359150606085013567ffffffffffffffff8111156100c6575f5ffd5b8501601f810187136100d6575f5ffd5b803567ffffffffffffffff8111156100f0576100f0610043565b604051601f8201601f19908116603f0116810167ffffffffffffffff8111828210171561011f5761011f610043565b604052818152828201602001891015610136575f5ffd5b816020840160208301375f602083830101528093505050509295919450925056fea26469706673582212209deaa03ec458824a33ef523701f0c0ceb5f69ce682f624bb38c482cc013d0e0e64736f6c634300081c0033","linkReferences":{}},"methodIdentifiers":{"handleWithdrawalRequest(uint128,address,uint256,string)":"aecd31a3"},"id":0}